{
  "contractName": "Faucet",
  "abi": [
    {
      "inputs": [],
      "name": "funds",
      "outputs": [
        {
          "internalType": "uint256",
          "name": "",
          "type": "uint256"
        }
      ],
      "stateMutability": "view",
      "type": "function",
      "constant": true
    },
    {
      "inputs": [],
      "name": "numOfFunders",
      "outputs": [
        {
          "internalType": "uint256",
          "name": "",
          "type": "uint256"
        }
      ],
      "stateMutability": "view",
      "type": "function",
      "constant": true
    },
    {
      "inputs": [],
      "name": "owner",
      "outputs": [
        {
          "internalType": "address",
          "name": "",
          "type": "address"
        }
      ],
      "stateMutability": "view",
      "type": "function",
      "constant": true
    },
    {
      "inputs": [],
      "name": "test",
      "outputs": [
        {
          "internalType": "uint256",
          "name": "",
          "type": "uint256"
        }
      ],
      "stateMutability": "pure",
      "type": "function",
      "constant": true
    },
    {
      "inputs": [],
      "name": "testNum",
      "outputs": [
        {
          "internalType": "uint256",
          "name": "",
          "type": "uint256"
        }
      ],
      "stateMutability": "view",
      "type": "function",
      "constant": true
    },
    {
      "stateMutability": "payable",
      "type": "receive",
      "payable": true
    },
    {
      "inputs": [],
      "name": "emitLog",
      "outputs": [
        {
          "internalType": "bytes32",
          "name": "",
          "type": "bytes32"
        }
      ],
      "stateMutability": "pure",
      "type": "function",
      "constant": true
    },
    {
      "inputs": [],
      "name": "addFunds",
      "outputs": [],
      "stateMutability": "payable",
      "type": "function",
      "payable": true
    },
    {
      "inputs": [
        {
          "internalType": "uint256",
          "name": "withdrawAmount",
          "type": "uint256"
        }
      ],
      "name": "withdraw",
      "outputs": [],
      "stateMutability": "nonpayable",
      "type": "function"
    },
    {
      "inputs": [],
      "name": "getAllFunders",
      "outputs": [
        {
          "internalType": "address[]",
          "name": "",
          "type": "address[]"
        }
      ],
      "stateMutability": "view",
      "type": "function",
      "constant": true
    },
    {
      "inputs": [
        {
          "internalType": "uint256",
          "name": "index",
          "type": "uint256"
        }
      ],
      "name": "getFundersAtIndex",
      "outputs": [
        {
          "internalType": "address",
          "name": "",
          "type": "address"
        }
      ],
      "stateMutability": "view",
      "type": "function",
      "constant": true
    }
  ],
  "bytecode": "0x60806040526103e860025534801561001657600080fd5b50336000806101000a81548173ffffffffffffffffffffffffffffffffffffffff021916908373ffffffffffffffffffffffffffffffffffffffff1602179055506103e860018190555061093d8061006f6000396000f3fe6080604052600436106100955760003560e01c8063af7f2c9b11610059578063af7f2c9b14610155578063c89f2ce414610180578063ca64abcd146101ab578063f42c13bf146101e8578063f8a8fd6d146102135761009c565b80632e1a7d4d146100a15780636fbbb55d146100ca5780638da5cb5b146100f5578063a26759cb14610120578063ae28f1ed1461012a5761009c565b3661009c57005b600080fd5b3480156100ad57600080fd5b506100c860048036038101906100c391906105c8565b61023e565b005b3480156100d657600080fd5b506100df6102d5565b6040516100ec91906106e5565b60405180910390f35b34801561010157600080fd5b5061010a6103cf565b6040516101179190610716565b60405180910390f35b6101286103f3565b005b34801561013657600080fd5b5061013f61050d565b60405161014c9190610740565b60405180910390f35b34801561016157600080fd5b5061016a610513565b6040516101779190610740565b60405180910390f35b34801561018c57600080fd5b50610195610519565b6040516101a29190610740565b60405180910390f35b3480156101b757600080fd5b506101d260048036038101906101cd91906105c8565b61051f565b6040516101df9190610716565b60405180910390f35b3480156101f457600080fd5b506101fd61055c565b60405161020a9190610774565b60405180910390f35b34801561021f57600080fd5b50610228610584565b6040516102359190610740565b60405180910390f35b8067016345785d8a000081111561028a576040517f08c379a000000000000000000000000000000000000000000000000000000000815260040161028190610812565b60405180910390fd5b3373ffffffffffffffffffffffffffffffffffffffff166108fc839081150290604051600060405180830381858888f193505050501580156102d0573d6000803e3d6000fd5b505050565b6060600060035467ffffffffffffffff8111156102f5576102f4610832565b5b6040519080825280602002602001820160405280156103235781602001602082028036833780820191505090505b50905060005b6003548110156103c7576005600082815260200190815260200160002060009054906101000a900473ffffffffffffffffffffffffffffffffffffffff1682828151811061037a57610379610861565b5b602002602001019073ffffffffffffffffffffffffffffffffffffffff16908173ffffffffffffffffffffffffffffffffffffffff168152505080806103bf906108bf565b915050610329565b508091505090565b60008054906101000a900473ffffffffffffffffffffffffffffffffffffffff1681565b6000339050600460008273ffffffffffffffffffffffffffffffffffffffff1673ffffffffffffffffffffffffffffffffffffffff16815260200190815260200160002060009054906101000a900460ff1661050a57806005600060036000815480929190610461906108bf565b91905055815260200190815260200160002060006101000a81548173ffffffffffffffffffffffffffffffffffffffff021916908373ffffffffffffffffffffffffffffffffffffffff1602179055506001600460008373ffffffffffffffffffffffffffffffffffffffff1673ffffffffffffffffffffffffffffffffffffffff16815260200190815260200160002060006101000a81548160ff0219169083151502179055505b50565b60015481565b60035481565b60025481565b60006005600083815260200190815260200160002060009054906101000a900473ffffffffffffffffffffffffffffffffffffffff169050919050565b60007f48656c6c6f20776f726c64000000000000000000000000000000000000000000905090565b60006064905090565b600080fd5b6000819050919050565b6105a581610592565b81146105b057600080fd5b50565b6000813590506105c28161059c565b92915050565b6000602082840312156105de576105dd61058d565b5b60006105ec848285016105b3565b91505092915050565b600081519050919050565b600082825260208201905092915050565b6000819050602082019050919050565b600073ffffffffffffffffffffffffffffffffffffffff82169050919050565b600061064c82610621565b9050919050565b61065c81610641565b82525050565b600061066e8383610653565b60208301905092915050565b6000602082019050919050565b6000610692826105f5565b61069c8185610600565b93506106a783610611565b8060005b838110156106d85781516106bf8882610662565b97506106ca8361067a565b9250506001810190506106ab565b5085935050505092915050565b600060208201905081810360008301526106ff8184610687565b905092915050565b61071081610641565b82525050565b600060208201905061072b6000830184610707565b92915050565b61073a81610592565b82525050565b60006020820190506107556000830184610731565b92915050565b6000819050919050565b61076e8161075b565b82525050565b60006020820190506107896000830184610765565b92915050565b600082825260208201905092915050565b7f43616e6e6f74207769746864726177206d6f7265207468616e20302e3120657460008201527f6865720000000000000000000000000000000000000000000000000000000000602082015250565b60006107fc60238361078f565b9150610807826107a0565b604082019050919050565b6000602082019050818103600083015261082b816107ef565b9050919050565b7f4e487b7100000000000000000000000000000000000000000000000000000000600052604160045260246000fd5b7f4e487b7100000000000000000000000000000000000000000000000000000000600052603260045260246000fd5b7f4e487b7100000000000000000000000000000000000000000000000000000000600052601160045260246000fd5b60006108ca82610592565b91507fffffffffffffffffffffffffffffffffffffffffffffffffffffffffffffffff82036108fc576108fb610890565b5b60018201905091905056fea264697066735822122036870de3115c4a90f6acf39e4f3b247fcb3583938fcce75bf2efb8f62c56dc3d64736f6c63430008100033",
  "immutableReferences": {},
  "source": "// SPDX-License-Identifier: GPL-3.0\n\npragma solidity >=0.7.0 <0.9.0;\n\nimport \"./Owned.sol\";\nimport \"./Logger.sol\";\nimport \"./IFaucet.sol\";\n\ncontract Faucet is Owned, Logger, IFaucet {\n    // storage variables\n    uint256 public funds = 1000;\n\n    // address[] public funders;\n\n    uint256 public numOfFunders;\n    mapping(address => bool) private funders;\n\n    // lookup table\n    mapping(uint256 => address) private lutFunders;\n\n    modifier limitWithdraw(uint256 withdrawAmount) {\n        require(\n            withdrawAmount <= 100000000000000000,\n            \"Cannot withdraw more than 0.1 ether\"\n        );\n        _;\n    }\n\n    function emitLog() public pure override returns (bytes32) {\n        return \"Hello world\";\n    }\n\n    receive() external payable {}\n\n    function addFunds() external payable override {\n        // funders.push(msg.sender);\n        address funder = msg.sender;\n        if (!funders[funder]) {\n            lutFunders[numOfFunders++] = funder;\n            funders[funder] = true;\n        }\n    }\n\n    function withdraw(uint256 withdrawAmount)\n        external\n        override\n        limitWithdraw(withdrawAmount)\n    {\n        // transfers Ether to msg.sender\n        payable(msg.sender).transfer(withdrawAmount);\n    }\n\n    function getAllFunders() external view returns (address[] memory) {\n        address[] memory _funders = new address[](numOfFunders);\n        for (uint256 i = 0; i < numOfFunders; i++) {\n            _funders[i] = lutFunders[i];\n        }\n        return _funders;\n    }\n\n    function getFundersAtIndex(uint256 index) external view returns (address) {\n        return lutFunders[index];\n    }\n}\n\n/**\nuint256 can keep 256 1s and 0s (min 0, max 2^256 - 1)\nint256 can keep 256 1s and 0s (min -2^255, max 2^255 - 1)\n\ne.g. \nmax_value in uint32 is 2^32 - 1 = 4294967295\n\nApplication Binary Interface (ABI):\n- residing address\n- functions we can call\n\nFor your contract to be able to recieve any Ether transactions\nit should have a receive() external payable{} function. This function should have payable modifier.\nanother function that has payable modifier can make the contract recieve Ether when executed\n */\n\n/**\n const instance = await Faucet.deployed()\n\n only payable functions have value attribute\n instance.addFunds({from: accounts[0], value: \"200000\"})\n instance.addFunds({from: accounts[1], value: \"2000000000000000000\"})\n\n instance.withdraw(\"500000000000000000\", {from: accounts[1]})\n  */\n\n// functions inherited from interfaces must be overriden\n\n/**\nfunction accessibility :- \nprivate - can only be called inside the contract\ninternal - can be called within the contract and the inheriting contracts\npublic - they can be called anywhere\nexternal - can only be called from outside of the contract\n */",
  "sourcePath": "/home/russellbest/Development/Blockchain/faucet/contracts/FaucetContract.sol",
  "compiler": {
    "name": "solc",
    "version": "0.8.16+commit.07a7930e.Emscripten.clang"
  },
  "schemaVersion": "3.4.10",
  "updatedAt": "2022-10-18T05:35:24.070Z",
  "networkType": "ethereum",
  "devdoc": {
    "kind": "dev",
    "methods": {},
    "version": 1
  },
  "userdoc": {
    "kind": "user",
    "methods": {},
    "version": 1
  }
}